:100000000C942D000C9455000C9455000C94550044
:100010000C9455000C9455000C9455000C947801E8
:100020000C9455000C9455000C9455000C945500FC
:100030000C9455000C9431040C9455000C946F04EE
:100040000C9455000C9455000C9455000C945500DC
:100050000C9455007403DF04E30411241FBECFE5A4
:10006000D8E0DEBFCDBF10E0A0E6B0E0ECE2FBE000
:1000700002C005900D92A63DB107D9F722E0A6ED8A
:10008000B0E001C01D92A833B207E1F710E0CCE266
:10009000D0E004C02197FE010E948305CA32D10737
:1000A000C9F70E94C2040C9489050C940000FC015D
:1000B0001182108213821282158214821682178294
:1000C0001086118612861386148615861686178664
:1000D000108A118A138A128A158A148A178A168A34
:1000E000108E118E128E138E148E158E168E178E04
:1000F00010A211A212A213A215A214A217A216A254
:1001000011A610A612A613A614A615A616A617A623
:1001100010AA11AA12AA13AA14AA15AA17AA16AAF3
:1001200011AE10AE13AE12AE14AE15AE16AE17AEC3
:10013000DC01A05CBF4F1D921D921D921C92139773
:1001400014961D921D921D921C921397149611964F
:100150001C921E9213961C921E92129715961C9238
:100160001E92149716961D921D921D921C9219971D
:100170001A961D921D921D921C921D971E961D92FD
:100180001D921D921C925197529611961C921E928E
:1001900013961C921E92129715961C921E921497FB
:1001A00016961D921D921D921C9219971A961D92D9
:1001B0001D921D921C921D971E961D921D921D92BE
:1001C0001C925197529611961C921E9213961C9255
:1001D0001E92129715961C921E92149716961D92B7
:1001E0001D921D921C9219971A961D921D921D9296
:1001F0001C921D971E961D921D921D921C92519746
:10020000529611961C921E9213961C921E92129751
:1002100015961C921E92149716961D921D921D9271
:100220001C9219971A961D921D921D921C921D9751
:100230001E961D921D921D921C92519752961196D8
:100240001C921E9213961C921E92129715961C9247
:100250001E92149716961D921D921D921C9219972C
:100260001A961D921D921D921C921D971E961D920C
:100270001D921D921C925197529611961C921E929D
:1002800013961C921E92129715961C921E9214970A
:1002900016961D921D921D921C9219971A961D92E8
:1002A0001D921D921C921D971E961D921D921D92CD
:1002B0001C92519796961C9211961D921D921D921A
:1002C0001C92139714961D921C92EC54FF4F84E1DC
:1002D000DF011D928A95E9F708951FBC8BE08EBD62
:1002E00089EF90E09BBD8ABD80E189BF7894089535
:1002F0001F920F920FB60F9211240F931F932F93FB
:100300003F934F935F938F939F93AF93BF93EF93DD
:10031000FF934091D6005091D700FA01E753FF4F69
:1003200080819181A281B3810196A11DB11D80833D
:100330009183A283B383DA01A853BF4F9C91992381
:1003400021F180E003C08F5F8917F8F4E82FF0E017
:10035000E65AFF4FEE0FFF1FE40FF51F0190F081EB
:10036000E02D228133812230310569F70681178122
:10037000208531850115110521053105B9F4138258
:1003800012829C918F5F891708F3FF91EF91BF91C3
:10039000AF919F918F915F914F913F912F911F91BD
:1003A0000F910F900FBE0F901F90189501501109DB
:1003B000210931090683178320873187012B022BFE
:1003C000032BE9F29C91BFCFCF93DF93FC01E8535D
:1003D000FF4F2081222309F40BC174970190F08113
:1003E000E02D42815381452B09F408C1223008F4E5
:1003F000FFC03FEF40E050E0FC01EA54FF4F0190A6
:10040000F081E02D62817381672B59F464817581DD
:100410004617570734F4233008F4FEC0AB0131E02F
:1004200003C0233008F4E7C0FC01E854FF4F0190FB
:10043000F081E02D62817381672B59F464817581AD
:100440004617570734F4243008F4F4C0AB0132E007
:1004500003C0243008F4CFC0FC01E654FF4F0190E4
:10046000F081E02D62817381672B59F4648175817D
:100470004617570734F4253008F4DAC0AB0133E0EF
:1004800003C0253008F4B7C0FC01E454FF4F0190CD
:10049000F081E02D62817381672B59F4648175814D
:1004A0004617570734F4263008F4C0C0AB0134E0D7
:1004B00003C0263008F49FC0FC01E254FF4F0190B6
:1004C000F081E02D62817381672B59F4648175811D
:1004D0004617570734F4273008F4A6C0AB0135E0BF
:1004E00003C0273008F487C0FC01E054FF4F01909F
:1004F000F081E02D62817381672B59F464817581ED
:100500004617570734F4283008F48CC0AB0136E0A6
:1005100003C0283008F46FC0FC01EE53FF4F019078
:10052000F081E02D62817381672B59F464817581BC
:100530004617570734F4293008F472C0AB0137E08E
:1005400003C0293008F457C0FC01EC53FF4F019061
:10055000F081E02D62817381672B59F4648175818C
:100560004617570734F42A3008F458C0AB0138E076
:1005700003C02A3008F43FC0FC01EA53FF4F01904A
:10058000F081E02D62817381672BA9F5648175810B
:100590004617570784F539E0FC0122E03202E00DEE
:1005A000F11D1124EC54FF4F0190F081E02DEC017E
:1005B000C353DF4FF983E88321E030E033832283A4
:1005C000DC01A753BF4F8D919D910D90BC91A02D43
:1005D00086879787A08BB18B0190F081E02D0995DC
:1005E000E881F98182819381019799F019821882BB
:1005F000DF91CF9108953F3F79F6FACF448155813D
:10060000141615060CF0F2CE30E0223008F0F4CECD
:10061000C3CF13821282EACF31E0BECF38E0BCCF25
:1006200037E0BACF36E0B8CF35E0B6CF34E0B4CF5C
:1006300033E0B2CF32E0B0CFCF93DF93EC01C853B9
:10064000DF4F28812A30E0F530E0D901AA0FBB1F27
:10065000FD01EE0FFF1FEE0FFF1FEE0FFF1FAE0F8E
:10066000BF1FA80FB91F265A3F4F220F331FFC018F
:10067000E20FF31FB183A08311967C936E931396C0
:100680001C921E92129715965C934E931497169691
:100690001D921D921D921C9219971A961D921D92E1
:1006A0001D921C921D971E961D921D921D921C92CA
:1006B000519788818F5F888381E0DF91CF91089582
:1006C00080E0DF91CF91089583539F4FDC01ED913E
:1006D000FC91309741F082E090E0938382834683DF
:1006E000578360877187089588ED90E00E945700D6
:1006F00088ED90E09093D7008093D60008950F93F3
:100700001F93CF93DF93CDB7DEB729970FB6F89439
:10071000DEBF0FBECDBF8C0181E0898393E09A8359
:100720001B821C828D8380E895E2A0E0B0E08E837E
:100730009F83A887B987BE016F5F7F4FC8010E9462
:10074000E704F801128629960FB6F894DEBF0FBEB3
:10075000CDBFDF91CF911F910F910895CF93DF937C
:10076000EC0140E051EE60E070E00E94F80460E6C9
:1007700070E0CE01DF91CF910C941505CF93DF93FC
:10078000EC018A85882329F06AE770E0CE010E9497
:10079000150581E08A87CE01DF91CF910895FC0194
:1007A00012860895CF92EF92FF920F931F93CF93EB
:1007B000DF93D82FC22F1C2DDB01CA01880F991F90
:1007C000AA1FBB1F880F991FAA1FBB1F9C01AD0149
:1007D000220F331F441F551F220F331F441F551F65
:1007E00060E074E284EF90E00E94610521503109DD
:1007F00030BD29B98C2F880F8068000F000F000FC3
:10080000082B80E1E89E70011124E02AE0BC88E119
:100810008AB9C730A9F01230B1F01330B1F01130FD
:1008200069F0D11103C08AB1877E8AB9DF91CF9177
:100830001F910F91FF90EF90CF900895579AF1CFAD
:10084000529A123051F7569AECCF8AB1806C8AB91D
:10085000E8CF8AB1877E8AB908955D9BFECF8CB9B7
:1008600008951F920F920FB60F9211242F933F936A
:100870004F935F936F937F938F939F93AF93BF93A8
:10088000EF93FF938CB1E091A701F091A80130970D
:1008900091F00995FF91EF91BF91AF919F918F9149
:1008A0007F916F915F914F913F912F910F900FBE6C
:1008B0000F901F9018952091AC0130E02F5F3F4FB3
:1008C0002F7333279091AB01921721F3E091AC0184
:1008D000F0E0E351FE4F80832093AC01DBCF1F9209
:1008E0000F920FB60F9211248F939F93EF93FF9364
:1008F0009091AA018091A901981779F0E091A9013E
:10090000F0E0E355FE4F80818CB98091A90190E021
:1009100001968F7399278093A901FF91EF919F9181
:100920008F910F900FBE0F901F9018958DE292E05F
:100930000E94BE0367E970E00E9415058DE292E017
:100940000E94CF0348EE53E060E070E08091D60053
:100950009091D7000C9464038DE292E00E94BE0354
:1009600064EB70E00E9415058DE292E00E94CF03D7
:1009700044EF51E060E070E08091D6009091D700A4
:100980000C9464038DE292E00E94AE03C091D60005
:10099000D091D700CE010E946D0142E050E066E99F
:1009A00074E0CE010E941C0343E050E06CEA74E066
:1009B000CE010E941C03CE010E94E401FCCF8DE217
:1009C00092E00C947F038DE292E00C94F10429E014
:1009D000FB01DC0101900D922A95E1F7FC011186E3
:1009E0000895FC018185811101C008950C942904AA
:1009F000CF92EF920F93CF93DF93EC014D835E8301
:100A00006F837887CC80EB800A81298188810E945E
:100A1000D20381E09881913009F080E08987DF91ED
:100A2000CF910F91EF90CF900895EF92FF920F9397
:100A30001F93CF93DF93FC012185222371F1EB01FA
:100A40007C01209799F18881882381F1219600E02B
:100A500010E00E942D040F5F1F4F89918111F9CF83
:100A6000F7018185882329F184EDE82E80E0F82EB6
:100A7000C0E0D0E08DE00E942D042196F701819125
:100A80007F018111F8CFC8018C0F9D1FDF91CF919D
:100A90001F910F91FF90EF90089580E090E0DF911B
:100AA000CF911F910F91FF90EF90089500E010E01B
:100AB000DBCFC801DF91CF911F910F91FF90EF9095
:100AC0000895A1E21A2EAA1BBB1BFD010DC0AA1F8F
:100AD000BB1FEE1FFF1FA217B307E407F50720F0A7
:100AE000A21BB30BE40BF50B661F771F881F991F22
:100AF0001A9469F760957095809590959B01AC016B
:100B0000BD01CF010895EE0FFF1F0590F491E02D78
:100B1000099410E0CCE2D0E004C0FE010E948305FD
:0C0B20002196CD32D107C9F7F894FFCF21
:100B2C0053797374656D204B65726E656C20696EBC
:100B3C00697469616C697A6564004552524F523A26
:100B4C00205541525420697320616C72656164793F
:100B5C00206275737921005B4845415254424541EE
:100B6C00545D2053797374656D20697320616C69D1
:100B7C00766521005B53454E534F522052454144FC
:100B8C005D20526561642073656E736F7220696EAF
:060B9C00666F000D0A0067
:00000001FF
