S01800005265736F757263655F4D616E616765722E73726563AA
S11300000C942A000C9447000C9447000C9447006D
S11300100C9447000C9447000C9447000C94470040
S11300200C9447000C9447000C9447000C94470030
S11300300C9447000C9411010C9447000C944F014C
S11300400C9447000C9447000C9447000C94470010
S11300500C94470011241FBECFE5D8E0DEBFCDBF0E
S113006010E0A0E6B0E0E0E8F4E002C005900D92F4
S1130070A03AB107D9F721E0A0EAB0E001C01D928F
S1130080A632B207E1F70E9476010C943E020C946A
S11300900000FC0171836083128213821482158232
S11300A00895EC01888199810E949E0060E670E0C9
S11300B00E94D001888199810E94AF00FFCF0F93E5
S11300C01F93CF93DF93CDB7DEB729970FB6F8947C
S11300D0DEBF0FBECDBF8C0181E0898393E09A839C
S11300E01B821C828D8380E895E2A0E0B0E08E83C1
S11300F09F83A887B987BE016F5F7F4FC8010E94A5
S1130100A201F801128629960FB6F894DEBF0FBE3D
S1130110CDBFDF91CF911F910F910895CF93DF93BE
S1130120EC0140E051EE60E070E00E94B30166E64D
S113013070E0CE01DF91CF910C94D001CF93DF9387
S1130140EC018A85882329F060E870E0CE010E94E2
S1130150D00181E08A87CE01DF91CF910895FC011F
S113016012860895CF92EF92FF920F931F93CF932D
S1130170DF93D82FC22F1C2DDB01CA01880F991FD2
S1130180AA1FBB1F880F991FAA1FBB1F9C01AD018B
S1130190220F331F441F551F220F331F441F551FA7
S11301A060E074E284EF90E00E941C022150310967
S11301B030BD29B98C2F880F8068000F000F000F05
S11301C0082B80E1E89E70011124E02AE0BC88E15C
S11301D08AB9C730A9F01230B1F01330B1F0113040
S11301E069F0D11103C08AB1877E8AB9DF91CF91BA
S11301F01F910F91FF90EF90CF900895579AF1CFF0
S1130200529A123051F7569AECCF8AB1806C8AB95F
S1130210E8CF8AB1877E8AB908955D9BFECF8CB9F9
S113022008951F920F920FB60F9211242F933F93AC
S11302304F935F936F937F938F939F93AF93BF93EA
S1130240EF93FF938CB1E091A000F091A10030975F
S113025091F00995FF91EF91BF91AF919F918F918B
S11302607F916F915F914F913F912F910F900FBEAE
S11302700F901F9018952091A50030E02F5F3F4FFD
S11302802F7333279091A400921721F3E091A500D6
S1130290F0E0EA51FF4F80832093A500DBCF1F924B
S11302A00F920FB60F9211248F939F93EF93FF93A6
S11302B09091A3008091A200981779F0E091A20098
S11302C0F0E0EA55FF4F80818CB98091A20090E064
S11302D001968F7399278093A200FF91EF919F91CC
S11302E08F910F900FBE0F901F901895CF93DF93AF
S11302F0CDB7DEB761970FB6F894DEBF0FBECDBFA2
S1130300CE0101960E945F00CE0101960E948E00EC
S1130310BE016F5F7F4FCE010C960E944900CE0153
S11303200C960E945100CE0101960E94AC0181E01E
S113033090E061960FB6F894DEBF0FBECDBFDF919B
S1130340CF91089529E0FB01DC0101900D922A95DB
S1130350E1F7FC0111860895FC018185811101C03A
S113036008950C940901CF92EF920F93CF93DF93EA
S1130370EC014D835E836F837887CC80EB800A81A8
S1130380298188810E94B20081E09881913009F02E
S113039080E08987DF91CF910F91EF90CF900895FE
S11303A0EF92FF920F931F93CF93DF93FC0121856C
S11303B0222371F1EB017C01209799F18881882334
S11303C081F1219600E010E00E940D010F5F1F4FA4
S11303D089918111F9CFF7018185882329F18EE96B
S11303E0E82E80E0F82EC0E0D0E08DE00E940D0100
S11303F02196F70181917F018111F8CFC8018C0FFB
S11304009D1FDF91CF911F910F91FF90EF90089561
S113041080E090E0DF91CF911F910F91FF90EF90DA
S1130420089500E010E0DBCFC801DF91CF911F9168
S11304300F91FF90EF900895A1E21A2EAA1BBB1B07
S1130440FD010DC0AA1FBB1FEE1FFF1FA217B3079C
S1130450E407F50720F0A21BB30BE40BF50B661FB2
S1130460771F881F991F1A9469F760957095809576
S113047090959B01AC01BD01CF010895F894FFCF85
S113048048656C6C6F0053797374656D204B6572AD
S11304906E656C20696E697469616C697A65640063
S11304A04552524F523A20554152542069732061AB
S11304B06C7265616479206275737921000D0A009C
S9030000FC
